{
  "contractName": "PostIt",
  "abi": [
    {
      "inputs": [],
      "stateMutability": "nonpayable",
      "type": "constructor"
    },
    {
      "anonymous": false,
      "inputs": [
        {
          "indexed": false,
          "internalType": "uint256",
          "name": "id",
          "type": "uint256"
        },
        {
          "indexed": false,
          "internalType": "address",
          "name": "postedBy",
          "type": "address"
        }
      ],
      "name": "PostCreated",
      "type": "event"
    },
    {
      "anonymous": false,
      "inputs": [
        {
          "indexed": false,
          "internalType": "uint256",
          "name": "postId",
          "type": "uint256"
        },
        {
          "indexed": false,
          "internalType": "address",
          "name": "replier",
          "type": "address"
        }
      ],
      "name": "UserReplied",
      "type": "event"
    },
    {
      "anonymous": false,
      "inputs": [
        {
          "indexed": false,
          "internalType": "uint256",
          "name": "id",
          "type": "uint256"
        },
        {
          "indexed": false,
          "internalType": "address",
          "name": "userAddress",
          "type": "address"
        }
      ],
      "name": "UserSignedUp",
      "type": "event"
    },
    {
      "inputs": [],
      "name": "postCount",
      "outputs": [
        {
          "internalType": "uint256",
          "name": "",
          "type": "uint256"
        }
      ],
      "stateMutability": "view",
      "type": "function",
      "constant": true
    },
    {
      "inputs": [
        {
          "internalType": "uint256",
          "name": "",
          "type": "uint256"
        },
        {
          "internalType": "uint256",
          "name": "",
          "type": "uint256"
        }
      ],
      "name": "postReplies",
      "outputs": [
        {
          "internalType": "uint256",
          "name": "",
          "type": "uint256"
        }
      ],
      "stateMutability": "view",
      "type": "function",
      "constant": true
    },
    {
      "inputs": [
        {
          "internalType": "uint256",
          "name": "",
          "type": "uint256"
        }
      ],
      "name": "posts",
      "outputs": [
        {
          "internalType": "uint256",
          "name": "id",
          "type": "uint256"
        },
        {
          "internalType": "bytes32",
          "name": "contentHash",
          "type": "bytes32"
        },
        {
          "internalType": "bytes32",
          "name": "mediaCid",
          "type": "bytes32"
        },
        {
          "internalType": "uint256",
          "name": "tip",
          "type": "uint256"
        },
        {
          "internalType": "address payable",
          "name": "postedBy",
          "type": "address"
        }
      ],
      "stateMutability": "view",
      "type": "function",
      "constant": true
    },
    {
      "inputs": [],
      "name": "userCount",
      "outputs": [
        {
          "internalType": "uint256",
          "name": "",
          "type": "uint256"
        }
      ],
      "stateMutability": "view",
      "type": "function",
      "constant": true
    },
    {
      "inputs": [
        {
          "internalType": "address",
          "name": "",
          "type": "address"
        },
        {
          "internalType": "uint256",
          "name": "",
          "type": "uint256"
        }
      ],
      "name": "userPosts",
      "outputs": [
        {
          "internalType": "uint256",
          "name": "",
          "type": "uint256"
        }
      ],
      "stateMutability": "view",
      "type": "function",
      "constant": true
    },
    {
      "inputs": [
        {
          "internalType": "address",
          "name": "",
          "type": "address"
        }
      ],
      "name": "users",
      "outputs": [
        {
          "internalType": "uint256",
          "name": "id",
          "type": "uint256"
        },
        {
          "internalType": "bytes",
          "name": "name",
          "type": "bytes"
        },
        {
          "internalType": "bytes32",
          "name": "profilePicture",
          "type": "bytes32"
        },
        {
          "internalType": "bool",
          "name": "signedUp",
          "type": "bool"
        }
      ],
      "stateMutability": "view",
      "type": "function",
      "constant": true
    },
    {
      "inputs": [
        {
          "internalType": "address",
          "name": "newOwner",
          "type": "address"
        }
      ],
      "name": "changeOwner",
      "outputs": [],
      "stateMutability": "nonpayable",
      "type": "function"
    },
    {
      "inputs": [
        {
          "internalType": "bytes32",
          "name": "contentHash",
          "type": "bytes32"
        },
        {
          "internalType": "bytes32",
          "name": "mediaCid",
          "type": "bytes32"
        }
      ],
      "name": "post",
      "outputs": [],
      "stateMutability": "payable",
      "type": "function",
      "payable": true
    },
    {
      "inputs": [
        {
          "internalType": "uint256",
          "name": "postId",
          "type": "uint256"
        },
        {
          "internalType": "bytes32",
          "name": "contentHash",
          "type": "bytes32"
        },
        {
          "internalType": "bytes32",
          "name": "mediaCid",
          "type": "bytes32"
        }
      ],
      "name": "reply",
      "outputs": [],
      "stateMutability": "nonpayable",
      "type": "function"
    },
    {
      "inputs": [
        {
          "internalType": "bytes",
          "name": "name",
          "type": "bytes"
        },
        {
          "internalType": "bytes32",
          "name": "profilePicture",
          "type": "bytes32"
        }
      ],
      "name": "signUp",
      "outputs": [],
      "stateMutability": "nonpayable",
      "type": "function"
    },
    {
      "inputs": [
        {
          "internalType": "uint256",
          "name": "from",
          "type": "uint256"
        },
        {
          "internalType": "uint256",
          "name": "to",
          "type": "uint256"
        }
      ],
      "name": "getPosts",
      "outputs": [
        {
          "components": [
            {
              "internalType": "uint256",
              "name": "id",
              "type": "uint256"
            },
            {
              "internalType": "bytes32",
              "name": "contentHash",
              "type": "bytes32"
            },
            {
              "internalType": "bytes32",
              "name": "mediaCid",
              "type": "bytes32"
            },
            {
              "internalType": "uint256",
              "name": "tip",
              "type": "uint256"
            },
            {
              "internalType": "address payable",
              "name": "postedBy",
              "type": "address"
            }
          ],
          "internalType": "struct PostIt.Post[]",
          "name": "_posts",
          "type": "tuple[]"
        }
      ],
      "stateMutability": "view",
      "type": "function",
      "constant": true
    },
    {
      "inputs": [
        {
          "internalType": "uint256",
          "name": "postId",
          "type": "uint256"
        }
      ],
      "name": "getReplies",
      "outputs": [
        {
          "components": [
            {
              "internalType": "uint256",
              "name": "id",
              "type": "uint256"
            },
            {
              "internalType": "bytes32",
              "name": "contentHash",
              "type": "bytes32"
            },
            {
              "internalType": "bytes32",
              "name": "mediaCid",
              "type": "bytes32"
            },
            {
              "internalType": "uint256",
              "name": "tip",
              "type": "uint256"
            },
            {
              "internalType": "address payable",
              "name": "postedBy",
              "type": "address"
            }
          ],
          "internalType": "struct PostIt.Post[]",
          "name": "_replies",
          "type": "tuple[]"
        }
      ],
      "stateMutability": "view",
      "type": "function",
      "constant": true
    },
    {
      "inputs": [
        {
          "internalType": "address",
          "name": "user",
          "type": "address"
        }
      ],
      "name": "getUserPosts",
      "outputs": [
        {
          "components": [
            {
              "internalType": "uint256",
              "name": "id",
              "type": "uint256"
            },
            {
              "internalType": "bytes32",
              "name": "contentHash",
              "type": "bytes32"
            },
            {
              "internalType": "bytes32",
              "name": "mediaCid",
              "type": "bytes32"
            },
            {
              "internalType": "uint256",
              "name": "tip",
              "type": "uint256"
            },
            {
              "internalType": "address payable",
              "name": "postedBy",
              "type": "address"
            }
          ],
          "internalType": "struct PostIt.Post[]",
          "name": "_posts",
          "type": "tuple[]"
        }
      ],
      "stateMutability": "view",
      "type": "function",
      "constant": true
    },
    {
      "inputs": [
        {
          "internalType": "uint256",
          "name": "id",
          "type": "uint256"
        }
      ],
      "name": "getPostById",
      "outputs": [
        {
          "components": [
            {
              "internalType": "uint256",
              "name": "id",
              "type": "uint256"
            },
            {
              "internalType": "bytes32",
              "name": "contentHash",
              "type": "bytes32"
            },
            {
              "internalType": "bytes32",
              "name": "mediaCid",
              "type": "bytes32"
            },
            {
              "internalType": "uint256",
              "name": "tip",
              "type": "uint256"
            },
            {
              "internalType": "address payable",
              "name": "postedBy",
              "type": "address"
            }
          ],
          "internalType": "struct PostIt.Post",
          "name": "_post",
          "type": "tuple"
        }
      ],
      "stateMutability": "view",
      "type": "function",
      "constant": true
    },
    {
      "inputs": [
        {
          "internalType": "address",
          "name": "user",
          "type": "address"
        }
      ],
      "name": "getUserByAddress",
      "outputs": [
        {
          "components": [
            {
              "internalType": "uint256",
              "name": "id",
              "type": "uint256"
            },
            {
              "internalType": "bytes",
              "name": "name",
              "type": "bytes"
            },
            {
              "internalType": "bytes32",
              "name": "profilePicture",
              "type": "bytes32"
            },
            {
              "internalType": "bool",
              "name": "signedUp",
              "type": "bool"
            }
          ],
          "internalType": "struct PostIt.User",
          "name": "_user",
          "type": "tuple"
        }
      ],
      "stateMutability": "view",
      "type": "function",
      "constant": true
    },
    {
      "inputs": [],
      "name": "getProfile",
      "outputs": [
        {
          "components": [
            {
              "internalType": "uint256",
              "name": "id",
              "type": "uint256"
            },
            {
              "internalType": "bytes",
              "name": "name",
              "type": "bytes"
            },
            {
              "internalType": "bytes32",
              "name": "profilePicture",
              "type": "bytes32"
            },
            {
              "internalType": "bool",
              "name": "signedUp",
              "type": "bool"
            }
          ],
          "internalType": "struct PostIt.User",
          "name": "_user",
          "type": "tuple"
        }
      ],
      "stateMutability": "view",
      "type": "function",
      "constant": true
    },
    {
      "inputs": [],
      "name": "getMyPosts",
      "outputs": [
        {
          "components": [
            {
              "internalType": "uint256",
              "name": "id",
              "type": "uint256"
            },
            {
              "internalType": "bytes32",
              "name": "contentHash",
              "type": "bytes32"
            },
            {
              "internalType": "bytes32",
              "name": "mediaCid",
              "type": "bytes32"
            },
            {
              "internalType": "uint256",
              "name": "tip",
              "type": "uint256"
            },
            {
              "internalType": "address payable",
              "name": "postedBy",
              "type": "address"
            }
          ],
          "internalType": "struct PostIt.Post[]",
          "name": "_userPosts",
          "type": "tuple[]"
        }
      ],
      "stateMutability": "view",
      "type": "function",
      "constant": true
    },
    {
      "inputs": [
        {
          "internalType": "address",
          "name": "user",
          "type": "address"
        }
      ],
      "name": "getUserPostIds",
      "outputs": [
        {
          "internalType": "uint256[]",
          "name": "_postIds",
          "type": "uint256[]"
        }
      ],
      "stateMutability": "view",
      "type": "function",
      "constant": true
    },
    {
      "inputs": [
        {
          "internalType": "uint256",
          "name": "postId",
          "type": "uint256"
        }
      ],
      "name": "tipUser",
      "outputs": [],
      "stateMutability": "payable",
      "type": "function",
      "payable": true
    }
  ],
  "bytecode": "0x608060405234801561001057600080fd5b50336000806101000a81548173ffffffffffffffffffffffffffffffffffffffff021916908373ffffffffffffffffffffffffffffffffffffffff1602179055506131e4806100606000396000f3fe6080604052600436106101145760003560e01c806369c212f6116100a0578063a87430ba11610064578063a87430ba146103f4578063ae58449d14610434578063b209b3f614610471578063d1d8a0681461049a578063d6afc9b1146104b657610114565b806369c212f6146102d75780638064d1491461031457806399ab09b4146103515780639a2194a91461038e578063a6f9dae1146103cb57610114565b80634b944b9b116100e75780634b944b9b146101ed5780634ffd1be6146102095780635411789b146102465780635950eb5b1461026f57806364e958951461029a57610114565b806307973ccf146101195780630b1e7f831461014457806317906c2e1461018557806319e77168146101b0575b600080fd5b34801561012557600080fd5b5061012e6104e1565b60405161013b91906120f4565b60405180910390f35b34801561015057600080fd5b5061016b60048036038101906101669190612145565b6104e7565b60405161017c9594939291906121cc565b60405180910390f35b34801561019157600080fd5b5061019a61053d565b6040516101a791906120f4565b60405180910390f35b3480156101bc57600080fd5b506101d760048036038101906101d2919061225d565b610543565b6040516101e49190612348565b60405180910390f35b61020760048036038101906102029190612396565b610661565b005b34801561021557600080fd5b50610230600480360381019061022b91906123d6565b61086e565b60405161023d919061254b565b60405180910390f35b34801561025257600080fd5b5061026d6004803603810190610268919061256d565b610b1c565b005b34801561027b57600080fd5b50610284610dfa565b604051610291919061254b565b60405180910390f35b3480156102a657600080fd5b506102c160048036038101906102bc9190612145565b611064565b6040516102ce9190612628565b60405180910390f35b3480156102e357600080fd5b506102fe60048036038101906102f9919061225d565b61116a565b60405161030b919061275a565b60405180910390f35b34801561032057600080fd5b5061033b6004803603810190610336919061277c565b61130b565b60405161034891906120f4565b60405180910390f35b34801561035d57600080fd5b50610378600480360381019061037391906123d6565b61133c565b60405161038591906120f4565b60405180910390f35b34801561039a57600080fd5b506103b560048036038101906103b0919061225d565b61136d565b6040516103c2919061254b565b60405180910390f35b3480156103d757600080fd5b506103f260048036038101906103ed919061225d565b6115d9565b005b34801561040057600080fd5b5061041b6004803603810190610416919061225d565b6116ac565b60405161042b9493929190612815565b60405180910390f35b34801561044057600080fd5b5061045b60048036038101906104569190612145565b611771565b604051610468919061254b565b60405180910390f35b34801561047d57600080fd5b50610498600480360381019061049391906128c6565b611985565b005b6104b460048036038101906104af9190612145565b611bb0565b005b3480156104c257600080fd5b506104cb611e21565b6040516104d8919061275a565b60405180910390f35b60015481565b60066020528060005260406000206000915090508060000154908060010154908060020154908060030154908060040160009054906101000a900473ffffffffffffffffffffffffffffffffffffffff16905085565b60025481565b6060816000600560008373ffffffffffffffffffffffffffffffffffffffff1673ffffffffffffffffffffffffffffffffffffffff16815260200190815260200160002060000154036105cb576040517f08c379a00000000000000000000000000000000000000000000000000000000081526004016105c290612983565b60405180910390fd5b600360008473ffffffffffffffffffffffffffffffffffffffff1673ffffffffffffffffffffffffffffffffffffffff16815260200190815260200160002080548060200260200160405190810160405280929190818152602001828054801561065457602002820191906000526020600020905b815481526020019060010190808311610640575b5050505050915050919050565b336000600560008373ffffffffffffffffffffffffffffffffffffffff1673ffffffffffffffffffffffffffffffffffffffff16815260200190815260200160002060000154036106e7576040517f08c379a00000000000000000000000000000000000000000000000000000000081526004016106de90612983565b60405180910390fd5b600260008154809291906106fa906129d2565b91905055506040518060a001604052806002548152602001848152602001838152602001600081526020013373ffffffffffffffffffffffffffffffffffffffff168152506006600060025481526020019081526020016000206000820151816000015560208201518160010155604082015181600201556060820151816003015560808201518160040160006101000a81548173ffffffffffffffffffffffffffffffffffffffff021916908373ffffffffffffffffffffffffffffffffffffffff160217905550905050600360003373ffffffffffffffffffffffffffffffffffffffff1673ffffffffffffffffffffffffffffffffffffffff16815260200190815260200160002060025490806001815401808255809150506001900390600052602060002001600090919091909150557f29c05e49ec69f11bd40335a9cb6a06fad27779987ab7b8d80448d642b1f592d560025433604051610861929190612a29565b60405180910390a1505050565b6060600082116108b3576040517f08c379a00000000000000000000000000000000000000000000000000000000081526004016108aa90612a9e565b60405180910390fd5b600083116108f6576040517f08c379a00000000000000000000000000000000000000000000000000000000081526004016108ed90612b30565b60405180910390fd5b828211610938576040517f08c379a000000000000000000000000000000000000000000000000000000000815260040161092f90612b9c565b60405180910390fd5b82820361097a576040517f08c379a000000000000000000000000000000000000000000000000000000000815260040161097190612c08565b60405180910390fd5b60025460018361098a9190612c28565b11156109cb576040517f08c379a00000000000000000000000000000000000000000000000000000000081526004016109c290612cce565b60405180910390fd5b600083836109d99190612c28565b90508067ffffffffffffffff8111156109f5576109f4612cee565b5b604051908082528060200260200182016040528015610a2e57816020015b610a1b611fc0565b815260200190600190039081610a135790505b50915060005b81811015610b1457600660008683610a4c9190612d1d565b81526020019081526020016000206040518060a0016040529081600082015481526020016001820154815260200160028201548152602001600382015481526020016004820160009054906101000a900473ffffffffffffffffffffffffffffffffffffffff1673ffffffffffffffffffffffffffffffffffffffff1673ffffffffffffffffffffffffffffffffffffffff1681525050838281518110610af657610af5612d73565b5b60200260200101819052508080610b0c906129d2565b915050610a34565b505092915050565b336000600560008373ffffffffffffffffffffffffffffffffffffffff1673ffffffffffffffffffffffffffffffffffffffff1681526020019081526020016000206000015403610ba2576040517f08c379a0000000000000000000000000000000000000000000000000000000008152600401610b9990612983565b60405180910390fd5b836000600660008381526020019081526020016000206000015403610bfc576040517f08c379a0000000000000000000000000000000000000000000000000000000008152600401610bf390612dee565b60405180910390fd5b60026000815480929190610c0f906129d2565b91905055506040518060a001604052806002548152602001858152602001848152602001600081526020013373ffffffffffffffffffffffffffffffffffffffff168152506006600060025481526020019081526020016000206000820151816000015560208201518160010155604082015181600201556060820151816003015560808201518160040160006101000a81548173ffffffffffffffffffffffffffffffffffffffff021916908373ffffffffffffffffffffffffffffffffffffffff160217905550905050600360003373ffffffffffffffffffffffffffffffffffffffff1673ffffffffffffffffffffffffffffffffffffffff16815260200190815260200160002060025490806001815401808255809150506001900390600052602060002001600090919091909150557f29c05e49ec69f11bd40335a9cb6a06fad27779987ab7b8d80448d642b1f592d560025433604051610d76929190612a29565b60405180910390a16004600086815260200190815260200160002060025490806001815401808255809150506001900390600052602060002001600090919091909150557f1f1ed69f5cd4f22624df58856b5dc9ed369cca360871a8272334398a192854b88533604051610deb929190612a29565b60405180910390a15050505050565b6060336000600560008373ffffffffffffffffffffffffffffffffffffffff1673ffffffffffffffffffffffffffffffffffffffff1681526020019081526020016000206000015403610e82576040517f08c379a0000000000000000000000000000000000000000000000000000000008152600401610e7990612983565b60405180910390fd5b6000600360003373ffffffffffffffffffffffffffffffffffffffff1673ffffffffffffffffffffffffffffffffffffffff168152602001908152602001600020805480602002602001604051908101604052809291908181526020018280548015610f0d57602002820191906000526020600020905b815481526020019060010190808311610ef9575b50505050509050805167ffffffffffffffff811115610f2f57610f2e612cee565b5b604051908082528060200260200182016040528015610f6857816020015b610f55611fc0565b815260200190600190039081610f4d5790505b50925060005b815181101561105e5760066000838381518110610f8e57610f8d612d73565b5b602002602001015181526020019081526020016000206040518060a0016040529081600082015481526020016001820154815260200160028201548152602001600382015481526020016004820160009054906101000a900473ffffffffffffffffffffffffffffffffffffffff1673ffffffffffffffffffffffffffffffffffffffff1673ffffffffffffffffffffffffffffffffffffffff16815250508482815181106110405761103f612d73565b5b60200260200101819052508080611056906129d2565b915050610f6e565b50505090565b61106c611fc0565b8160006006600083815260200190815260200160002060000154036110c6576040517f08c379a00000000000000000000000000000000000000000000000000000000081526004016110bd90612dee565b60405180910390fd5b600660008481526020019081526020016000206040518060a0016040529081600082015481526020016001820154815260200160028201548152602001600382015481526020016004820160009054906101000a900473ffffffffffffffffffffffffffffffffffffffff1673ffffffffffffffffffffffffffffffffffffffff1673ffffffffffffffffffffffffffffffffffffffff1681525050915050919050565b61117261200b565b816000600560008373ffffffffffffffffffffffffffffffffffffffff1673ffffffffffffffffffffffffffffffffffffffff16815260200190815260200160002060000154036111f8576040517f08c379a00000000000000000000000000000000000000000000000000000000081526004016111ef90612983565b60405180910390fd5b600560008473ffffffffffffffffffffffffffffffffffffffff1673ffffffffffffffffffffffffffffffffffffffff1681526020019081526020016000206040518060800160405290816000820154815260200160018201805461125c90612e3d565b80601f016020809104026020016040519081016040528092919081815260200182805461128890612e3d565b80156112d55780601f106112aa576101008083540402835291602001916112d5565b820191906000526020600020905b8154815290600101906020018083116112b857829003601f168201915b50505050508152602001600282015481526020016003820160009054906101000a900460ff161515151581525050915050919050565b6003602052816000526040600020818154811061132757600080fd5b90600052602060002001600091509150505481565b6004602052816000526040600020818154811061135857600080fd5b90600052602060002001600091509150505481565b6060816000600560008373ffffffffffffffffffffffffffffffffffffffff1673ffffffffffffffffffffffffffffffffffffffff16815260200190815260200160002060000154036113f5576040517f08c379a00000000000000000000000000000000000000000000000000000000081526004016113ec90612983565b60405180910390fd5b6000600360008573ffffffffffffffffffffffffffffffffffffffff1673ffffffffffffffffffffffffffffffffffffffff16815260200190815260200160002080548060200260200160405190810160405280929190818152602001828054801561148057602002820191906000526020600020905b81548152602001906001019080831161146c575b50505050509050805167ffffffffffffffff8111156114a2576114a1612cee565b5b6040519080825280602002602001820160405280156114db57816020015b6114c8611fc0565b8152602001906001900390816114c05790505b50925060005b81518110156115d1576006600083838151811061150157611500612d73565b5b602002602001015181526020019081526020016000206040518060a0016040529081600082015481526020016001820154815260200160028201548152602001600382015481526020016004820160009054906101000a900473ffffffffffffffffffffffffffffffffffffffff1673ffffffffffffffffffffffffffffffffffffffff1673ffffffffffffffffffffffffffffffffffffffff16815250508482815181106115b3576115b2612d73565b5b602002602001018190525080806115c9906129d2565b9150506114e1565b505050919050565b3360008054906101000a900473ffffffffffffffffffffffffffffffffffffffff1673ffffffffffffffffffffffffffffffffffffffff168173ffffffffffffffffffffffffffffffffffffffff1614611668576040517f08c379a000000000000000000000000000000000000000000000000000000000815260040161165f90612ee0565b60405180910390fd5b816000806101000a81548173ffffffffffffffffffffffffffffffffffffffff021916908373ffffffffffffffffffffffffffffffffffffffff1602179055505050565b60056020528060005260406000206000915090508060000154908060010180546116d590612e3d565b80601f016020809104026020016040519081016040528092919081815260200182805461170190612e3d565b801561174e5780601f106117235761010080835404028352916020019161174e565b820191906000526020600020905b81548152906001019060200180831161173157829003601f168201915b5050505050908060020154908060030160009054906101000a900460ff16905084565b60608160006006600083815260200190815260200160002060000154036117cd576040517f08c379a00000000000000000000000000000000000000000000000000000000081526004016117c490612dee565b60405180910390fd5b60006004600085815260200190815260200160002080548060200260200160405190810160405280929190818152602001828054801561182c57602002820191906000526020600020905b815481526020019060010190808311611818575b50505050509050805167ffffffffffffffff81111561184e5761184d612cee565b5b60405190808252806020026020018201604052801561188757816020015b611874611fc0565b81526020019060019003908161186c5790505b50925060005b815181101561197d57600660008383815181106118ad576118ac612d73565b5b602002602001015181526020019081526020016000206040518060a0016040529081600082015481526020016001820154815260200160028201548152602001600382015481526020016004820160009054906101000a900473ffffffffffffffffffffffffffffffffffffffff1673ffffffffffffffffffffffffffffffffffffffff1673ffffffffffffffffffffffffffffffffffffffff168152505084828151811061195f5761195e612d73565b5b60200260200101819052508080611975906129d2565b91505061188d565b505050919050565b600560003373ffffffffffffffffffffffffffffffffffffffff1673ffffffffffffffffffffffffffffffffffffffff16815260200190815260200160002060030160009054906101000a900460ff1615611a15576040517f08c379a0000000000000000000000000000000000000000000000000000000008152600401611a0c90612f4c565b60405180910390fd5b60008383905011611a5b576040517f08c379a0000000000000000000000000000000000000000000000000000000008152600401611a5290612fb8565b60405180910390fd5b60016000815480929190611a6e906129d2565b91905055506040518060800160405280600154815260200184848080601f016020809104026020016040519081016040528093929190818152602001838380828437600081840152601f19601f82011690508083019250505050505050815260200182815260200160011515815250600560003373ffffffffffffffffffffffffffffffffffffffff1673ffffffffffffffffffffffffffffffffffffffff168152602001908152602001600020600082015181600001556020820151816001019080519060200190611b42929190612038565b506040820151816002015560608201518160030160006101000a81548160ff0219169083151502179055509050507f7cc1ba99fbc14dfc962c948b000f48a38f6ebd8f71dfcbdeb66edd39c0d5d7d060015433604051611ba3929190612a29565b60405180910390a1505050565b806000600660008381526020019081526020016000206000015403611c0a576040517f08c379a0000000000000000000000000000000000000000000000000000000008152600401611c0190612dee565b60405180910390fd5b60003411611c4d576040517f08c379a0000000000000000000000000000000000000000000000000000000008152600401611c4490613024565b60405180910390fd5b47341115611c90576040517f08c379a0000000000000000000000000000000000000000000000000000000008152600401611c87906130b6565b60405180910390fd5b60006006600084815260200190815260200160002060040160009054906101000a900473ffffffffffffffffffffffffffffffffffffffff1690508073ffffffffffffffffffffffffffffffffffffffff163373ffffffffffffffffffffffffffffffffffffffff1603611d39576040517f08c379a0000000000000000000000000000000000000000000000000000000008152600401611d3090613122565b60405180910390fd5b600073ffffffffffffffffffffffffffffffffffffffff168173ffffffffffffffffffffffffffffffffffffffff1603611da8576040517f08c379a0000000000000000000000000000000000000000000000000000000008152600401611d9f9061318e565b60405180910390fd5b34600660008581526020019081526020016000206003016000828254611dce9190612d1d565b925050819055508073ffffffffffffffffffffffffffffffffffffffff166108fc349081150290604051600060405180830381858888f19350505050158015611e1b573d6000803e3d6000fd5b50505050565b611e2961200b565b336000600560008373ffffffffffffffffffffffffffffffffffffffff1673ffffffffffffffffffffffffffffffffffffffff1681526020019081526020016000206000015403611eaf576040517f08c379a0000000000000000000000000000000000000000000000000000000008152600401611ea690612983565b60405180910390fd5b600560003373ffffffffffffffffffffffffffffffffffffffff1673ffffffffffffffffffffffffffffffffffffffff16815260200190815260200160002060405180608001604052908160008201548152602001600182018054611f1390612e3d565b80601f0160208091040260200160405190810160405280929190818152602001828054611f3f90612e3d565b8015611f8c5780601f10611f6157610100808354040283529160200191611f8c565b820191906000526020600020905b815481529060010190602001808311611f6f57829003601f168201915b50505050508152602001600282015481526020016003820160009054906101000a900460ff16151515158152505091505090565b6040518060a0016040528060008152602001600080191681526020016000801916815260200160008152602001600073ffffffffffffffffffffffffffffffffffffffff1681525090565b60405180608001604052806000815260200160608152602001600080191681526020016000151581525090565b82805461204490612e3d565b90600052602060002090601f01602090048101928261206657600085556120ad565b82601f1061207f57805160ff19168380011785556120ad565b828001600101855582156120ad579182015b828111156120ac578251825591602001919060010190612091565b5b5090506120ba91906120be565b5090565b5b808211156120d75760008160009055506001016120bf565b5090565b6000819050919050565b6120ee816120db565b82525050565b600060208201905061210960008301846120e5565b92915050565b600080fd5b600080fd5b612122816120db565b811461212d57600080fd5b50565b60008135905061213f81612119565b92915050565b60006020828403121561215b5761215a61210f565b5b600061216984828501612130565b91505092915050565b6000819050919050565b61218581612172565b82525050565b600073ffffffffffffffffffffffffffffffffffffffff82169050919050565b60006121b68261218b565b9050919050565b6121c6816121ab565b82525050565b600060a0820190506121e160008301886120e5565b6121ee602083018761217c565b6121fb604083018661217c565b61220860608301856120e5565b61221560808301846121bd565b9695505050505050565b600061222a8261218b565b9050919050565b61223a8161221f565b811461224557600080fd5b50565b60008135905061225781612231565b92915050565b6000602082840312156122735761227261210f565b5b600061228184828501612248565b91505092915050565b600081519050919050565b600082825260208201905092915050565b6000819050602082019050919050565b6122bf816120db565b82525050565b60006122d183836122b6565b60208301905092915050565b6000602082019050919050565b60006122f58261228a565b6122ff8185612295565b935061230a836122a6565b8060005b8381101561233b57815161232288826122c5565b975061232d836122dd565b92505060018101905061230e565b5085935050505092915050565b6000602082019050818103600083015261236281846122ea565b905092915050565b61237381612172565b811461237e57600080fd5b50565b6000813590506123908161236a565b92915050565b600080604083850312156123ad576123ac61210f565b5b60006123bb85828601612381565b92505060206123cc85828601612381565b9150509250929050565b600080604083850312156123ed576123ec61210f565b5b60006123fb85828601612130565b925050602061240c85828601612130565b9150509250929050565b600081519050919050565b600082825260208201905092915050565b6000819050602082019050919050565b61244b81612172565b82525050565b61245a816121ab565b82525050565b60a08201600082015161247660008501826122b6565b5060208201516124896020850182612442565b50604082015161249c6040850182612442565b5060608201516124af60608501826122b6565b5060808201516124c26080850182612451565b50505050565b60006124d48383612460565b60a08301905092915050565b6000602082019050919050565b60006124f882612416565b6125028185612421565b935061250d83612432565b8060005b8381101561253e57815161252588826124c8565b9750612530836124e0565b925050600181019050612511565b5085935050505092915050565b6000602082019050818103600083015261256581846124ed565b905092915050565b6000806000606084860312156125865761258561210f565b5b600061259486828701612130565b93505060206125a586828701612381565b92505060406125b686828701612381565b9150509250925092565b60a0820160008201516125d660008501826122b6565b5060208201516125e96020850182612442565b5060408201516125fc6040850182612442565b50606082015161260f60608501826122b6565b5060808201516126226080850182612451565b50505050565b600060a08201905061263d60008301846125c0565b92915050565b600081519050919050565b600082825260208201905092915050565b60005b8381101561267d578082015181840152602081019050612662565b8381111561268c576000848401525b50505050565b6000601f19601f8301169050919050565b60006126ae82612643565b6126b8818561264e565b93506126c881856020860161265f565b6126d181612692565b840191505092915050565b60008115159050919050565b6126f1816126dc565b82525050565b600060808301600083015161270f60008601826122b6565b506020830151848203602086015261272782826126a3565b915050604083015161273c6040860182612442565b50606083015161274f60608601826126e8565b508091505092915050565b6000602082019050818103600083015261277481846126f7565b905092915050565b600080604083850312156127935761279261210f565b5b60006127a185828601612248565b92505060206127b285828601612130565b9150509250929050565b600082825260208201905092915050565b60006127d882612643565b6127e281856127bc565b93506127f281856020860161265f565b6127fb81612692565b840191505092915050565b61280f816126dc565b82525050565b600060808201905061282a60008301876120e5565b818103602083015261283c81866127cd565b905061284b604083018561217c565b6128586060830184612806565b95945050505050565b600080fd5b600080fd5b600080fd5b60008083601f84011261288657612885612861565b5b8235905067ffffffffffffffff8111156128a3576128a2612866565b5b6020830191508360018202830111156128bf576128be61286b565b5b9250929050565b6000806000604084860312156128df576128de61210f565b5b600084013567ffffffffffffffff8111156128fd576128fc612114565b5b61290986828701612870565b9350935050602061291c86828701612381565b9150509250925092565b600082825260208201905092915050565b7f5573657220646f65736e27742065786973740000000000000000000000000000600082015250565b600061296d601283612926565b915061297882612937565b602082019050919050565b6000602082019050818103600083015261299c81612960565b9050919050565b7f4e487b7100000000000000000000000000000000000000000000000000000000600052601160045260246000fd5b60006129dd826120db565b91507fffffffffffffffffffffffffffffffffffffffffffffffffffffffffffffffff8203612a0f57612a0e6129a3565b5b600182019050919050565b612a238161221f565b82525050565b6000604082019050612a3e60008301856120e5565b612a4b6020830184612a1a565b9392505050565b7f2727746f27206d7573742062652067726561746572207468616e207a65726f00600082015250565b6000612a88601f83612926565b9150612a9382612a52565b602082019050919050565b60006020820190508181036000830152612ab781612a7b565b9050919050565b7f272766726f6d27206d7573742062652067726561746572207468616e207a657260008201527f6f00000000000000000000000000000000000000000000000000000000000000602082015250565b6000612b1a602183612926565b9150612b2582612abe565b604082019050919050565b60006020820190508181036000830152612b4981612b0d565b9050919050565b7f2766726f6d272073686f756c64206265206c657373207468616e2027746f2700600082015250565b6000612b86601f83612926565b9150612b9182612b50565b602082019050919050565b60006020820190508181036000830152612bb581612b79565b9050919050565b7f2766726f6d272063616e6e6f7420626520657175616c20746f2027746f270000600082015250565b6000612bf2601e83612926565b9150612bfd82612bbc565b602082019050919050565b60006020820190508181036000830152612c2181612be5565b9050919050565b6000612c33826120db565b9150612c3e836120db565b925082821015612c5157612c506129a3565b5b828203905092915050565b7f27746f272063616e6e6f742062652067726561746572207468616e20746f746160008201527f6c20706f737420636f756e740000000000000000000000000000000000000000602082015250565b6000612cb8602c83612926565b9150612cc382612c5c565b604082019050919050565b60006020820190508181036000830152612ce781612cab565b9050919050565b7f4e487b7100000000000000000000000000000000000000000000000000000000600052604160045260246000fd5b6000612d28826120db565b9150612d33836120db565b9250827fffffffffffffffffffffffffffffffffffffffffffffffffffffffffffffffff03821115612d6857612d676129a3565b5b828201905092915050565b7f4e487b7100000000000000000000000000000000000000000000000000000000600052603260045260246000fd5b7f506f737420646f65736e27742065786973740000000000000000000000000000600082015250565b6000612dd8601283612926565b9150612de382612da2565b602082019050919050565b60006020820190508181036000830152612e0781612dcb565b9050919050565b7f4e487b7100000000000000000000000000000000000000000000000000000000600052602260045260246000fd5b60006002820490506001821680612e5557607f821691505b602082108103612e6857612e67612e0e565b5b50919050565b7f4f6e6c79206f776e6572206f662074686520636f6e74726163742063616e206360008201527f616c6c2074686973000000000000000000000000000000000000000000000000602082015250565b6000612eca602883612926565b9150612ed582612e6e565b604082019050919050565b60006020820190508181036000830152612ef981612ebd565b9050919050565b7f55736572206d757374206e6f74206861766520616e206163636f756e74000000600082015250565b6000612f36601d83612926565b9150612f4182612f00565b602082019050919050565b60006020820190508181036000830152612f6581612f29565b9050919050565b7f55736572206e616d652063616e6e6f7420626520656d70747900000000000000600082015250565b6000612fa2601983612926565b9150612fad82612f6c565b602082019050919050565b60006020820190508181036000830152612fd181612f95565b9050919050565b7f416d6f756e74206d7573742062652067726561746572207468616e207a65726f600082015250565b600061300e602083612926565b915061301982612fd8565b602082019050919050565b6000602082019050818103600083015261303d81613001565b9050919050565b7f496e73756666696369656e742062616c616e636520696e2074686520636f6e7460008201527f7261637400000000000000000000000000000000000000000000000000000000602082015250565b60006130a0602483612926565b91506130ab82613044565b604082019050919050565b600060208201905081810360008301526130cf81613093565b9050919050565b7f43616e6e6f742074697020796f7572206f776e20706f73740000000000000000600082015250565b600061310c601883612926565b9150613117826130d6565b602082019050919050565b6000602082019050818103600083015261313b816130ff565b9050919050565b7f496e76616c69642027746f272061646472657373000000000000000000000000600082015250565b6000613178601483612926565b915061318382613142565b602082019050919050565b600060208201905081810360008301526131a78161316b565b905091905056fea264697066735822122088fb3eea780d5bf12e7589f2bd928e3c7fc6ba02b09e53f5ba84a3362e5f9a1f64736f6c634300080d0033",
  "immutableReferences": {},
  "source": "// SPDX-License-Identifier: MIT\r\npragma solidity ^0.8.13;\r\n\r\ncontract PostIt {\r\n    address owner;\r\n    uint256 public userCount;\r\n    uint256 public postCount;\r\n    \r\n    mapping(address => uint256[]) public  userPosts;\r\n    mapping(uint256 => uint256[]) public postReplies;\r\n    mapping(address => User) public users;\r\n    mapping(uint256 => Post) public posts;\r\n\r\n    event UserReplied(uint256 postId, address replier);\r\n    event UserSignedUp(uint256 id, address userAddress);\r\n    event PostCreated(uint256 id, address postedBy);\r\n\r\n    struct Post {\r\n        uint256 id;\r\n        bytes32 contentHash;\r\n        bytes32 mediaCid;\r\n        uint256 tip;\r\n        address payable postedBy;\r\n    }\r\n\r\n    struct User {\r\n        uint256 id;\r\n        bytes name;\r\n        bytes32 profilePicture;\r\n        bool signedUp;\r\n    }\r\n\r\n    modifier isOwner(address ownerAddress) {\r\n        require(ownerAddress == owner, \"Only owner of the contract can call this\");\r\n        _;\r\n    }\r\n\r\n    modifier postMustExist(uint256 id) {\r\n        require(posts[id].id != 0, \"Post doesn't exist\");\r\n        _;\r\n    }\r\n\r\n    modifier userMustExist(address userId) {\r\n        require(users[userId].id != 0, \"User doesn't exist\");\r\n        _;\r\n    }\r\n\r\n\r\n    constructor() {\r\n        owner = msg.sender;\r\n    }\r\n\r\n    function changeOwner(address newOwner) public \r\n        isOwner(msg.sender) {\r\n        owner = newOwner;\r\n    }\r\n\r\n    function post(bytes32 contentHash, bytes32 mediaCid) \r\n        userMustExist(msg.sender) external payable {\r\n        postCount++;\r\n        posts[postCount] = Post(postCount, contentHash, mediaCid, 0, payable(msg.sender));\r\n        userPosts[msg.sender].push(postCount);\r\n        emit PostCreated(postCount, msg.sender);\r\n    }\r\n    \r\n    function reply(uint256 postId, bytes32 contentHash, bytes32 mediaCid) external \r\n        userMustExist(msg.sender) \r\n        postMustExist(postId) {\r\n        postCount++;\r\n        posts[postCount] = Post(postCount, contentHash, mediaCid, 0, payable(msg.sender));\r\n        userPosts[msg.sender].push(postCount);\r\n        emit PostCreated(postCount, msg.sender);\r\n        postReplies[postId].push(postCount);\r\n        emit UserReplied(postId, msg.sender);\r\n    }\r\n\r\n    function signUp(bytes calldata name, bytes32 profilePicture) external {\r\n        require(!users[msg.sender].signedUp, \"User must not have an account\");\r\n        require(name.length > 0, \"User name cannot be empty\");\r\n        userCount++;\r\n        users[msg.sender] = User(userCount, name, profilePicture, true);\r\n        emit UserSignedUp(userCount, msg.sender);\r\n    }\r\n\r\n    function getPosts(uint256 from, uint256 to) external view returns (Post[] memory _posts) {\r\n        require(to > 0, \"''to' must be greater than zero\");\r\n        require(from > 0, \"''from' must be greater than zero\");\r\n        require(to > from, \"'from' should be less than 'to'\");\r\n        require(to != from, \"'from' cannot be equal to 'to'\");\r\n        require(to - 1 <= postCount, \"'to' cannot be greater than total post count\");\r\n        uint256 size = to - from;\r\n        _posts = new Post[](size);\r\n        for (uint256 _from = 0; _from < size; _from++) {\r\n            _posts[_from] = posts[_from + from];\r\n        }\r\n        return _posts;\r\n    }\r\n\r\n    function getReplies(uint256 postId) postMustExist(postId) external view returns (Post[] memory _replies) {\r\n        uint256[] memory replyIds = postReplies[postId];\r\n        _replies = new Post[](replyIds.length);\r\n        for (uint256 index = 0; index < replyIds.length; index++) {\r\n             _replies[index] = posts[replyIds[index]];\r\n        }\r\n        return _replies;\r\n    }\r\n\r\n    function getUserPosts(address user) external view \r\n        userMustExist(user) returns (Post[] memory _posts) {\r\n        uint256[] memory postIds = userPosts[user];\r\n        _posts = new Post[](postIds.length);\r\n        for (uint256 i = 0; i < postIds.length; i++) {\r\n            _posts[i] = posts[postIds[i]];\r\n        }\r\n        return _posts;\r\n    }\r\n\r\n    function getPostById(uint256 id) external view \r\n        postMustExist(id) returns (Post memory _post) {\r\n        return posts[id];\r\n    }\r\n\r\n    function getUserByAddress(address user) external view\r\n        userMustExist(user) returns (User memory _user) {\r\n        return users[user];\r\n    }\r\n\r\n    function getProfile() external\r\n        userMustExist(msg.sender) view returns (User memory _user) {\r\n        return users[msg.sender];\r\n    }\r\n\r\n    function getMyPosts() external\r\n        userMustExist(msg.sender) view returns (Post[] memory _userPosts) {\r\n        uint256[] memory postIds = userPosts[msg.sender];\r\n        _userPosts = new Post[](postIds.length);\r\n        for (uint256 i = 0; i < postIds.length; i++) {\r\n            _userPosts[i] = posts[postIds[i]];\r\n        }\r\n        return _userPosts;\r\n    }\r\n\r\n    function getUserPostIds(address user) external view\r\n        userMustExist(user) returns (uint256[] memory _postIds) {\r\n        return userPosts[user];\r\n    }\r\n\r\n    function tipUser(uint256 postId) external payable\r\n        postMustExist(postId) {\r\n        require(msg.value > 0, \"Amount must be greater than zero\");\r\n        require(msg.value <= address(this).balance, \"Insufficient balance in the contract\");\r\n        address payable recipient = posts[postId].postedBy;\r\n        require(msg.sender != recipient, \"Cannot tip your own post\");\r\n        require(recipient != address(0), \"Invalid 'to' address\");\r\n        posts[postId].tip += msg.value;\r\n        recipient.transfer(msg.value);\r\n    }\r\n}\r\n",
  "sourcePath": "C:\\Users\\eminnet\\Desktop\\bitirme\\proje\\post-it\\src\\contracts\\PostIt.sol",
  "compiler": {
    "name": "solc",
    "version": "0.8.13+commit.abaa5c0e.Emscripten.clang"
  },
  "schemaVersion": "3.4.15",
  "updatedAt": "2023-08-21T11:00:33.774Z",
  "networkType": "ethereum",
  "devdoc": {
    "kind": "dev",
    "methods": {},
    "version": 1
  },
  "userdoc": {
    "kind": "user",
    "methods": {},
    "version": 1
  }
}